{
  "contractName": "DecentralBank",
  "abi": [
    {
      "inputs": [
        {
          "internalType": "contract RWD",
          "name": "_rwd",
          "type": "address"
        },
        {
          "internalType": "contract Tether",
          "name": "_tether",
          "type": "address"
        }
      ],
      "stateMutability": "nonpayable",
      "type": "constructor"
    },
    {
      "inputs": [
        {
          "internalType": "address",
          "name": "",
          "type": "address"
        }
      ],
      "name": "hasStaked",
      "outputs": [
        {
          "internalType": "bool",
          "name": "",
          "type": "bool"
        }
      ],
      "stateMutability": "view",
      "type": "function",
      "constant": true
    },
    {
      "inputs": [
        {
          "internalType": "address",
          "name": "",
          "type": "address"
        }
      ],
      "name": "isStaked",
      "outputs": [
        {
          "internalType": "bool",
          "name": "",
          "type": "bool"
        }
      ],
      "stateMutability": "view",
      "type": "function",
      "constant": true
    },
    {
      "inputs": [],
      "name": "name",
      "outputs": [
        {
          "internalType": "string",
          "name": "",
          "type": "string"
        }
      ],
      "stateMutability": "view",
      "type": "function",
      "constant": true
    },
    {
      "inputs": [],
      "name": "owner",
      "outputs": [
        {
          "internalType": "address",
          "name": "",
          "type": "address"
        }
      ],
      "stateMutability": "view",
      "type": "function",
      "constant": true
    },
    {
      "inputs": [],
      "name": "rwd",
      "outputs": [
        {
          "internalType": "contract RWD",
          "name": "",
          "type": "address"
        }
      ],
      "stateMutability": "view",
      "type": "function",
      "constant": true
    },
    {
      "inputs": [
        {
          "internalType": "uint256",
          "name": "",
          "type": "uint256"
        }
      ],
      "name": "stakers",
      "outputs": [
        {
          "internalType": "address",
          "name": "",
          "type": "address"
        }
      ],
      "stateMutability": "view",
      "type": "function",
      "constant": true
    },
    {
      "inputs": [
        {
          "internalType": "address",
          "name": "",
          "type": "address"
        }
      ],
      "name": "stakingBalance",
      "outputs": [
        {
          "internalType": "uint256",
          "name": "",
          "type": "uint256"
        }
      ],
      "stateMutability": "view",
      "type": "function",
      "constant": true
    },
    {
      "inputs": [],
      "name": "tether",
      "outputs": [
        {
          "internalType": "contract Tether",
          "name": "",
          "type": "address"
        }
      ],
      "stateMutability": "view",
      "type": "function",
      "constant": true
    },
    {
      "inputs": [
        {
          "internalType": "uint256",
          "name": "_amount",
          "type": "uint256"
        }
      ],
      "name": "depositTokens",
      "outputs": [],
      "stateMutability": "nonpayable",
      "type": "function"
    },
    {
      "inputs": [],
      "name": "issueTokens",
      "outputs": [],
      "stateMutability": "nonpayable",
      "type": "function"
    },
    {
      "inputs": [],
      "name": "unstakeTokens",
      "outputs": [],
      "stateMutability": "nonpayable",
      "type": "function"
    }
  ],
  "bytecode": "0x60806040526040518060400160405280600e81526020017f446563656e7472616c2042616e6b000000000000000000000000000000000000815250600090816200004a9190620003c3565b503480156200005857600080fd5b50604051620016ab380380620016ab83398181016040528101906200007e91906200056d565b81600460006101000a81548173ffffffffffffffffffffffffffffffffffffffff021916908373ffffffffffffffffffffffffffffffffffffffff16021790555080600360006101000a81548173ffffffffffffffffffffffffffffffffffffffff021916908373ffffffffffffffffffffffffffffffffffffffff16021790555033600160006101000a81548173ffffffffffffffffffffffffffffffffffffffff021916908373ffffffffffffffffffffffffffffffffffffffff1602179055505050620005b4565b600081519050919050565b7f4e487b7100000000000000000000000000000000000000000000000000000000600052604160045260246000fd5b7f4e487b7100000000000000000000000000000000000000000000000000000000600052602260045260246000fd5b60006002820490506001821680620001cb57607f821691505b602082108103620001e157620001e062000183565b5b50919050565b60008190508160005260206000209050919050565b60006020601f8301049050919050565b600082821b905092915050565b6000600883026200024b7fffffffffffffffffffffffffffffffffffffffffffffffffffffffffffffffff826200020c565b6200025786836200020c565b95508019841693508086168417925050509392505050565b6000819050919050565b6000819050919050565b6000620002a46200029e62000298846200026f565b62000279565b6200026f565b9050919050565b6000819050919050565b620002c08362000283565b620002d8620002cf82620002ab565b84845462000219565b825550505050565b600090565b620002ef620002e0565b620002fc818484620002b5565b505050565b5b81811015620003245762000318600082620002e5565b60018101905062000302565b5050565b601f82111562000373576200033d81620001e7565b6200034884620001fc565b8101602085101562000358578190505b620003706200036785620001fc565b83018262000301565b50505b505050565b600082821c905092915050565b6000620003986000198460080262000378565b1980831691505092915050565b6000620003b3838362000385565b9150826002028217905092915050565b620003ce8262000149565b67ffffffffffffffff811115620003ea57620003e962000154565b5b620003f68254620001b2565b6200040382828562000328565b600060209050601f8311600181146200043b576000841562000426578287015190505b620004328582620003a5565b865550620004a2565b601f1984166200044b86620001e7565b60005b8281101562000475578489015182556001820191506020850194506020810190506200044e565b8683101562000495578489015162000491601f89168262000385565b8355505b6001600288020188555050505b505050505050565b600080fd5b600073ffffffffffffffffffffffffffffffffffffffff82169050919050565b6000620004dc82620004af565b9050919050565b6000620004f082620004cf565b9050919050565b6200050281620004e3565b81146200050e57600080fd5b50565b6000815190506200052281620004f7565b92915050565b60006200053582620004cf565b9050919050565b620005478162000528565b81146200055357600080fd5b50565b60008151905062000567816200053c565b92915050565b60008060408385031215620005875762000586620004aa565b5b6000620005978582860162000511565b9250506020620005aa8582860162000556565b9150509250929050565b6110e780620005c46000396000f3fe608060405234801561001057600080fd5b50600436106100a95760003560e01c80636177fd18116100715780636177fd18146101425780638da5cb5b14610172578063a5ce413b14610190578063c93c8f341461019a578063dd49756e146101ca578063fd5e6dd1146101e6576100a9565b806306fdde03146100ae5780631a8972d3146100cc57806345bc78ab146100ea5780635efc071a1461011a57806360ab585214610138575b600080fd5b6100b6610216565b6040516100c39190610a9f565b60405180910390f35b6100d46102a4565b6040516100e19190610b40565b60405180910390f35b61010460048036038101906100ff9190610b9e565b6102ca565b6040516101119190610be4565b60405180910390f35b6101226102e2565b60405161012f9190610c20565b60405180910390f35b610140610308565b005b61015c60048036038101906101579190610b9e565b6104fe565b6040516101699190610c56565b60405180910390f35b61017a61051e565b6040516101879190610c80565b60405180910390f35b610198610544565b005b6101b460048036038101906101af9190610b9e565b61070c565b6040516101c19190610c56565b60405180910390f35b6101e460048036038101906101df9190610cc7565b61072c565b005b61020060048036038101906101fb9190610cc7565b6109d0565b60405161020d9190610c80565b60405180910390f35b6000805461022390610d23565b80601f016020809104026020016040519081016040528092919081815260200182805461024f90610d23565b801561029c5780601f106102715761010080835404028352916020019161029c565b820191906000526020600020905b81548152906001019060200180831161027f57829003601f168201915b505050505081565b600460009054906101000a900473ffffffffffffffffffffffffffffffffffffffff1681565b60056020528060005260406000206000915090505481565b600360009054906101000a900473ffffffffffffffffffffffffffffffffffffffff1681565b600160009054906101000a900473ffffffffffffffffffffffffffffffffffffffff1673ffffffffffffffffffffffffffffffffffffffff163373ffffffffffffffffffffffffffffffffffffffff1614610398576040517f08c379a000000000000000000000000000000000000000000000000000000000815260040161038f90610da0565b60405180910390fd5b60005b6002805490508110156104fb576000600282815481106103be576103bd610dc0565b5b9060005260206000200160009054906101000a900473ffffffffffffffffffffffffffffffffffffffff16905060006009600560008473ffffffffffffffffffffffffffffffffffffffff1673ffffffffffffffffffffffffffffffffffffffff168152602001908152602001600020546104399190610e4d565b905060008111156104e657600460009054906101000a900473ffffffffffffffffffffffffffffffffffffffff1673ffffffffffffffffffffffffffffffffffffffff1663a9059cbb83836040518363ffffffff1660e01b81526004016104a1929190610e7e565b6020604051808303816000875af11580156104c0573d6000803e3d6000fd5b505050506040513d601f19601f820116820180604052508101906104e49190610ed3565b505b505080806104f390610f00565b91505061039b565b50565b60076020528060005260406000206000915054906101000a900460ff1681565b600160009054906101000a900473ffffffffffffffffffffffffffffffffffffffff1681565b6000600560003373ffffffffffffffffffffffffffffffffffffffff1673ffffffffffffffffffffffffffffffffffffffff168152602001908152602001600020549050600081116105cb576040517f08c379a00000000000000000000000000000000000000000000000000000000081526004016105c290610fba565b60405180910390fd5b600360009054906101000a900473ffffffffffffffffffffffffffffffffffffffff1673ffffffffffffffffffffffffffffffffffffffff1663a9059cbb33836040518363ffffffff1660e01b8152600401610628929190610e7e565b6020604051808303816000875af1158015610647573d6000803e3d6000fd5b505050506040513d601f19601f8201168201806040525081019061066b9190610ed3565b506000600560003373ffffffffffffffffffffffffffffffffffffffff1673ffffffffffffffffffffffffffffffffffffffff168152602001908152602001600020819055506000600760003373ffffffffffffffffffffffffffffffffffffffff1673ffffffffffffffffffffffffffffffffffffffff16815260200190815260200160002060006101000a81548160ff02191690831515021790555050565b60066020528060005260406000206000915054906101000a900460ff1681565b6000811161076f576040517f08c379a000000000000000000000000000000000000000000000000000000000815260040161076690611026565b60405180910390fd5b600360009054906101000a900473ffffffffffffffffffffffffffffffffffffffff1673ffffffffffffffffffffffffffffffffffffffff166323b872dd3330846040518463ffffffff1660e01b81526004016107ce93929190611046565b6020604051808303816000875af11580156107ed573d6000803e3d6000fd5b505050506040513d601f19601f820116820180604052508101906108119190610ed3565b5080600560003373ffffffffffffffffffffffffffffffffffffffff1673ffffffffffffffffffffffffffffffffffffffff1681526020019081526020016000206000828254610861919061107d565b92505081905550600660003373ffffffffffffffffffffffffffffffffffffffff1673ffffffffffffffffffffffffffffffffffffffff16815260200190815260200160002060009054906101000a900460ff1661091d576002339080600181540180825580915050600190039060005260206000200160009091909190916101000a81548173ffffffffffffffffffffffffffffffffffffffff021916908373ffffffffffffffffffffffffffffffffffffffff1602179055505b6001600660003373ffffffffffffffffffffffffffffffffffffffff1673ffffffffffffffffffffffffffffffffffffffff16815260200190815260200160002060006101000a81548160ff0219169083151502179055506001600760003373ffffffffffffffffffffffffffffffffffffffff1673ffffffffffffffffffffffffffffffffffffffff16815260200190815260200160002060006101000a81548160ff02191690831515021790555050565b600281815481106109e057600080fd5b906000526020600020016000915054906101000a900473ffffffffffffffffffffffffffffffffffffffff1681565b600081519050919050565b600082825260208201905092915050565b60005b83811015610a49578082015181840152602081019050610a2e565b60008484015250505050565b6000601f19601f8301169050919050565b6000610a7182610a0f565b610a7b8185610a1a565b9350610a8b818560208601610a2b565b610a9481610a55565b840191505092915050565b60006020820190508181036000830152610ab98184610a66565b905092915050565b600073ffffffffffffffffffffffffffffffffffffffff82169050919050565b6000819050919050565b6000610b06610b01610afc84610ac1565b610ae1565b610ac1565b9050919050565b6000610b1882610aeb565b9050919050565b6000610b2a82610b0d565b9050919050565b610b3a81610b1f565b82525050565b6000602082019050610b556000830184610b31565b92915050565b600080fd5b6000610b6b82610ac1565b9050919050565b610b7b81610b60565b8114610b8657600080fd5b50565b600081359050610b9881610b72565b92915050565b600060208284031215610bb457610bb3610b5b565b5b6000610bc284828501610b89565b91505092915050565b6000819050919050565b610bde81610bcb565b82525050565b6000602082019050610bf96000830184610bd5565b92915050565b6000610c0a82610b0d565b9050919050565b610c1a81610bff565b82525050565b6000602082019050610c356000830184610c11565b92915050565b60008115159050919050565b610c5081610c3b565b82525050565b6000602082019050610c6b6000830184610c47565b92915050565b610c7a81610b60565b82525050565b6000602082019050610c956000830184610c71565b92915050565b610ca481610bcb565b8114610caf57600080fd5b50565b600081359050610cc181610c9b565b92915050565b600060208284031215610cdd57610cdc610b5b565b5b6000610ceb84828501610cb2565b91505092915050565b7f4e487b7100000000000000000000000000000000000000000000000000000000600052602260045260246000fd5b60006002820490506001821680610d3b57607f821691505b602082108103610d4e57610d4d610cf4565b5b50919050565b7f4d757374206265206f776e657200000000000000000000000000000000000000600082015250565b6000610d8a600d83610a1a565b9150610d9582610d54565b602082019050919050565b60006020820190508181036000830152610db981610d7d565b9050919050565b7f4e487b7100000000000000000000000000000000000000000000000000000000600052603260045260246000fd5b7f4e487b7100000000000000000000000000000000000000000000000000000000600052601260045260246000fd5b7f4e487b7100000000000000000000000000000000000000000000000000000000600052601160045260246000fd5b6000610e5882610bcb565b9150610e6383610bcb565b925082610e7357610e72610def565b5b828204905092915050565b6000604082019050610e936000830185610c71565b610ea06020830184610bd5565b9392505050565b610eb081610c3b565b8114610ebb57600080fd5b50565b600081519050610ecd81610ea7565b92915050565b600060208284031215610ee957610ee8610b5b565b5b6000610ef784828501610ebe565b91505092915050565b6000610f0b82610bcb565b91507fffffffffffffffffffffffffffffffffffffffffffffffffffffffffffffffff8203610f3d57610f3c610e1e565b5b600182019050919050565b7f42616c616e6365206d7573742062652067726561746572207468616e2030207460008201527f6f20756e7374616b650000000000000000000000000000000000000000000000602082015250565b6000610fa4602983610a1a565b9150610faf82610f48565b604082019050919050565b60006020820190508181036000830152610fd381610f97565b9050919050565b7f616d6f756e742063616e6e6f7420626520300000000000000000000000000000600082015250565b6000611010601283610a1a565b915061101b82610fda565b602082019050919050565b6000602082019050818103600083015261103f81611003565b9050919050565b600060608201905061105b6000830186610c71565b6110686020830185610c71565b6110756040830184610bd5565b949350505050565b600061108882610bcb565b915061109383610bcb565b92508282019050808211156110ab576110aa610e1e565b5b9291505056fea2646970667358221220ebb67409ab3c78bc7f7a0893e79806f1b6bc56b99199115922b23749e26f87bd64736f6c63430008110033",
  "immutableReferences": {},
  "source": "// SPDX-License-Identifier: GPL-3.0\n\npragma solidity ^0.8.4;\n\nimport './RWD.sol';\nimport './Tether.sol';\n\ncontract DecentralBank {\n  string public name ='Decentral Bank';\n  address public owner;\n  address [] public stakers;\n  Tether public tether;\n  RWD public rwd;\n\n  mapping (address => uint) public stakingBalance;\n  mapping (address => bool) public hasStaked;\n  mapping (address => bool) public isStaked; \n\n  constructor(RWD _rwd, Tether _tether) {\n    rwd = _rwd;\n    tether = _tether;\n    owner = msg.sender;\n  }\n\n  function depositTokens(uint _amount) public {\n    // Require staking amount is greater than 0\n    require(_amount > 0, 'amount cannot be 0');\n\n    /* \n      Transfer tether tokens to this contract address for staking\n      ! Question 3: Ti sao l address(this) ch khng phi l owner (state variable ca DecentralBank)\n      !             Theo em hiu th address(this) l address ca DecentralBank contract.\n      !             address ca DecentralBank contract v address ca owner l ring bit,\n      !             Khi deposit th deposit vo bank, ch khng phi deposit vo owner phi khng anh?\n    */\n    tether.transferFrom(msg.sender, address(this), _amount);\n\n    // Update Staking balance\n    stakingBalance[msg.sender] += _amount;\n\n    if(!hasStaked[msg.sender]){\n      stakers.push(msg.sender);\n    }\n\n    // Update Staking status\n    hasStaked[msg.sender] = true;\n    isStaked[msg.sender] = true;\n  }\n\n  // Issue reward\n  function issueTokens() public{\n    require(msg.sender == owner, 'Must be owner');\n    for(uint i=0; i<stakers.length; i++){\n      address recepient = stakers[i];\n      uint balance = stakingBalance[recepient] / 9;\n      if(balance > 0){\n        rwd.transfer(recepient, balance);\n      }\n    }\n  }\n\n  // Unstake \n  function unstakeTokens() public {\n    uint balance = stakingBalance[msg.sender];\n    require(balance > 0, 'Balance must be greater than 0 to unstake');\n\n    tether.transfer(msg.sender, balance);\n\n    // reset staking balance\n    stakingBalance[msg.sender] = 0;\n\n    // Update Staking status\n    isStaked[msg.sender] = false; \n  }\n\n}",
  "sourcePath": "/Users/daivuong/defi-staking-app-starter/defi-staking-app-starter/src/contracts/DecentralBank.sol",
  "compiler": {
    "name": "solc",
    "version": "0.8.17+commit.8df45f5f.Emscripten.clang"
  },
  "schemaVersion": "3.4.11",
  "updatedAt": "2023-01-18T05:52:18.742Z",
  "networkType": "ethereum",
  "devdoc": {
    "kind": "dev",
    "methods": {},
    "version": 1
  },
  "userdoc": {
    "kind": "user",
    "methods": {},
    "version": 1
  }
}